:100000000DC0FFFFFFFFFFFFFFFFFFFFFFFFFFFF31
:10001000FFFFFFFFFFFFFFFFFFFFCAC4EFE5EDBFDC
:10002000F2E0FEBFE1E0EABBEFE0E7BBEFEFE4BBED
:10003000EFEFE1BBE0E0E6B9002702BB3FEF72D48F
:10004000E0E0EFBBE2E0EEBBE09AADB3AE3451F5D9
:1000500080D400E00FBB04E00EBB1DD481D400E0CF
:100060000FBB09E00EBB17D411270027009591D4D0
:1000700002BB6FD400E00FBB03E10EBB0CD470D405
:1000800000E00FBB03E20EBB06D40FD4E0E0EFBBF1
:10009000E3E0EEBBE09AADB3AE3421F000271127C8
:1000A000109577D40FEFE0E0EFBBE3E0EEBBE09A12
:1000B000ADB3A93509F002BB4CD400E00FBB02E39D
:1000C0000EBBE9D34DD400E00FBB03E40EBBE3D37A
:1000D00031E020E09F93E0E0EFBBE0E0EEBBE09A90
:1000E0009DB3920FB92FD0E3AA27B43618F0A39589
:1000F000B456FBCFAD0FE3E6F0E0A083AA27BA30F9
:1001000018F0A395BA50FBCFAD0FE4E6F0E0A08362
:10011000BD0FE5E6F0E0B083AF93AA27A33009F462
:1001200009C0E3E6F0E0EA0F08F4F3954081DFD37D
:10013000A395F4CFAF919F9132E021E09F93E0E04F
:10014000EFBBE0E0EEBBE09A9DB3920FB92FD0E396
:10015000AA27B43618F0A395B456FBCFAD0FE3E64B
:10016000F0E0A083AA27BA3018F0A395BA50FBCFCD
:10017000AD0FE4E6F0E0A083BD0FE5E6F0E0B0836C
:10018000AF93AA27A33009F409C0E3E6F0E0EA0F31
:1001900008F4F3954081ABD3A395F4CFAF919F9131
:1001A00034E022E09F93E0E0EFBBE0E0EEBBE09ABA
:1001B0009DB3920FB92FD0E3AA27B43618F0A395B8
:1001C000B456FBCFAD0FE3E6F0E0A083AA27BA3028
:1001D00018F0A395BA50FBCFAD0FE4E6F0E0A08392
:1001E000BD0FE5E6F0E0B083AF93AA27A33009F492
:1001F00009C0E3E6F0E0EA0F08F4F395408177D315
:10020000A395F4CFAF919F9138E023E09F93E0E076
:10021000EFBBE0E0EEBBE09A9DB3920FB92FD0E3C5
:10022000AA27B43618F0A395B456FBCFAD0FE3E67A
:10023000F0E0A083AA27BA3018F0A395BA50FBCFFC
:10024000AD0FE4E6F0E0A083BD0FE5E6F0E0B0839B
:10025000AF93AA27A33009F409C0E3E6F0E0EA0F60
:1002600008F4F395408143D3A395F4CFAF919F91C8
:1002700030E124E09F93E0E0EFBBE0E0EEBBE09AEA
:100280009DB3920FB92FD0E3AA27B43618F0A395E7
:10029000B456FBCFAD0FE3E6F0E0A083AA27BA3057
:1002A00018F0A395BA50FBCFAD0FE4E6F0E0A083C1
:1002B000BD0FE5E6F0E0B083AF93AA27A33009F4C1
:1002C00009C0E3E6F0E0EA0F08F4F39540810FD3AC
:1002D000A395F4CFAF919F9130E225E09F93E0E0AA
:1002E000EFBBE0E0EEBBE09A9DB3920FB92FD0E3F5
:1002F000AA27B43618F0A395B456FBCFAD0FE3E6AA
:10030000F0E0A083AA27BA3018F0A395BA50FBCF2B
:10031000AD0FE4E6F0E0A083BD0FE5E6F0E0B083CA
:10032000AF93AA27A33009F409C0E3E6F0E0EA0F8F
:1003300008F4F3954081DBD2A395F4CFAF919F9160
:1003400030E426E09F93E0E0EFBBE0E0EEBBE09A14
:100350009DB3920FB92FD0E3AA27B43618F0A39516
:10036000B456FBCFAD0FE3E6F0E0A083AA27BA3086
:1003700018F0A395BA50FBCFAD0FE4E6F0E0A083F0
:10038000BD0FE5E6F0E0B083AF93AA27A33009F4F0
:1003900009C0E3E6F0E0EA0F08F4F3954081A7D244
:1003A000A395F4CFAF919F9130E827E09F93E0E0D1
:1003B000EFBBE0E0EEBBE09A9DB3920FB92FD0E324
:1003C000AA27B43618F0A395B456FBCFAD0FE3E6D9
:1003D000F0E0A083AA27BA3018F0A395BA50FBCF5B
:1003E000AD0FE4E6F0E0A083BD0FE5E6F0E0B083FA
:1003F000AF93AA27A33009F409C0E3E6F0E0EA0FBF
:1004000008F4F395408173D2A395F4CFAF919F91F7
:100410003FEF40E26CD220E09F93E0E0EFBBE1E0F1
:10042000EEBBE09A9DB3920FB92FD0E3AA27B43662
:1004300018F0A395B456FBCFAD0FE3E6F0E0A08330
:10044000AA27BA3018F0A395BA50FBCFAD0FE4E657
:10045000F0E0A083BD0FE5E6F0E0B083AF93AA27FC
:10046000A33009F409C0E3E6F0E0EA0F08F4F395DD
:1004700040813DD2A395F4CFAF919F91A0E0B0E031
:10048000A770E2E2EA9FE8E60E0E08F41394F12D5D
:10049000E02DB083A395A770E2E2EA9FE8E60E0E96
:1004A00008F41394F12DE02DB083A395A770E2E238
:1004B000EA9FE8E60E0E08F41394F12DE02DB083C8
:1004C000A395A770E2E2EA9FE8E60E0E08F4139403
:1004D000F12DE02DB083A395A770E2E2EA9FE8E654
:1004E0000E0E08F41394F12DE02DB083A395A770A0
:1004F000E2E2EA9FE8E60E0E08F41394F12DE02DF7
:10050000B083A395A770E2E2EA9FE8E60E0E08F436
:100510001394F12DE02DB083A395A770E2E2EA9F3A
:10052000E8E60E0E08F41394F12DE02DB083AA270F
:10053000ABBFA6BFAABFA0E2ABBF789400270770ED
:10054000E2E2E09FE8E60E0E08F41394F12DE02DB0
:10055000A081A130A1F5A2E0F12DE02DA0830394AC
:10056000002009F41394F12DE02DA081E02FE77015
:10057000F1E0E395EA9509F0FF0FE030D9F7E2B337
:10058000EF2BE2BBAA2309F00DC0E02FE770F1E0EA
:10059000E395EA9509F0FF0FE030D9F7F095E2B363
:1005A000EF23E2BB33D00ED00770E2E2E09FE8E633
:1005B0000E0E08F41394A0E0F12DE02DA083039516
:1005C0000770BDCF3327E02FE770F1E0E395EA95A0
:1005D00009F0FF0FE030D9F73F2BBFD1C0E1039402
:1005E000002009F41394F12DE02D408180D1CA95AB
:1005F000B1F7B6D1C0E10394002009F41394F12DB2
:10060000E02D408174D1CA95B1F708950F921F92E1
:100610000394002009F41394F12DE02DB081BE3233
:1006200079F50394002009F41394F12DE02DB081A5
:10063000B33631F50394002009F41394F12DE02D25
:10064000B081BD36E9F40394002009F41394F12D30
:10065000E02DB081B436A1F40394002009F4139482
:100660000394002009F41394F12DE02DB081B033F0
:1006700009F409D0B13309F497D0B23309F4C3D0E7
:100680001F900F90089511D1CC27DD2703940020EF
:1006900009F413940394002009F41394F12DE02D30
:1006A000A081AA330CF0A850A053A0316CF5CA2F3A
:1006B000C2950394002009F41394F12DE02DB0812C
:1006C000B03311F50394002009F41394039400202F
:1006D00009F41394F12DE02DA081AA330CF0A85059
:1006E000A053A0318CF4DA2FD2950394002009F4A2
:1006F0001394F12DE02DA081AA330CF0A850A05343
:10070000A03114F4DA2B17D024D100E00FBB07E49A
:100710000EBBC1D0CAD0C9D020D100E00FBB07E5C5
:100720000EBBB9D01DD100E00FBB07E60EBBB3D0A6
:10073000BCD0BBD065CCEFB7EF93F894E0E0EFBB53
:10074000E1E0EEBBDDBBE29AE19A000000000000B0
:1007500000000000E199FECF00000000EF91EFBF24
:10076000EFB7EF93F894E0E0EFBBE0E0EEBBCDBB7A
:10077000E29AE19A00000000000000000000E19908
:10078000FECF00000000EF91EFBFE7D000E00FBB0D
:1007900003E70EBB80D0E4D000E00FBB04E80EBB43
:1007A0007AD083D082D02CCC0394002009F4139407
:1007B0000394002009F41394F12DE02DB081EFB7DC
:1007C000EF93F894E0E0EFBBE2E0EEBBBDBBE29A52
:1007D000E19A00000000000000000000E199FECF57
:1007E00000000000EF91EFBFB8D000E00FBB03E7BF
:1007F0000EBB51D0B5D000E00FBB04E80EBB4BD010
:1008000054D053D0FDCB0394002009F413940394E7
:10081000002009F41394F12DE02DB081EFB7EF9390
:10082000F894E0E0EFBBE3E0EEBBBDBBE29AE19AF7
:1008300000000000000000000000E199FECF000071
:100840000000EF91EFBF89D000E00FBB03E70EBBC4
:1008500022D086D000E00FBB04E80EBB1CD025D010
:1008600024D0CECB2899FECF54E12899FBCF5A95BE
:10087000E1F7089550E55A95F1F700000895A1E0D9
:10088000992768E0F7DF28999A2BAA0F6A95D1F784
:10089000289BFECF0895E09A4DB3442329F027D03A
:1008A000EEB3E395EEBBF7CF089588EB03D08A95BE
:1008B000E9F7089552E469EC6A95F1F75A95D9F78A
:1008C000089553E85A95F1F7089554E35A95F1F7CE
:1008D000089558E15A95F1F70000089535BB0000DE
:1008E000000000003F93332735BB3F910895EF93FD
:1008F000E42F42954F70D89A48BBF0DFEF70D89A3A
:10090000E8BBECDFDEDFEF910895EF93E42F429533
:100910004F70D89848BBE2DFEF70E8BBDFDFD1DF74
:10092000EF91089575E0C6DF7A95E9F743E048BB9B
:10093000D5DFC0DFD3DFBEDFD1DFBCDF42E048BBA5
:10094000CDDFB8DF48E2E1DF4CE0DFDF44E0DDDFB0
:10095000089541E0DADFAEDF089540E8D6DF08957C
:1009600040ECD3DF0895E09A4DB342954F70A0E379
:100970004A0F4A33A7E00CF04A0FB9DF4DB3420FDC
:100980004F70A0E34A0F4A33A7E00CF04A0FAFDFE5
:1009900008955FEF6FEF02BB651709F412BB5F9319
:1009A00098DF5F916A95C1F75A95A1F702BB089548
:1009B0000F920FB60F921F922F923F924F925F921B
:1009C0006F927F928F929F92AF92BF92CF92DF925F
:1009D000EF92FF920F931F932F933F934F935F9349
:1009E0006F937F938F939F93AF93BF93CF93DF9337
:1009F000EF93FF9337DF43DF903F51F533DF3FDF66
:100A00009D3731F52FDF3BDF913011F52BDF37DFDD
:100A1000E0E0EFBBE0E0EEBBE09AADB3A07FB92F22
:100A2000B07FAB17A9F49770E2E2E99FE8E60E0EFB
:100A300008F41394192F93FD0BC014DF20DFE0E0BE
:100A4000EFBBE1E0EEBBE09AADB39A1709F425D015
:100A5000A0E2AABFFF91EF91DF91CF91BF91AF913B
:100A60009F918F917F916F915F914F913F912F91C6
:100A70001F910F91FF90EF90DF90CF90BF90AF90BC
:100A80009F908F907F906F905F904F903F902F90AE
:100A90001F900F900FBE0F901895F12DE02DA081A3
:100AA000A230E9F0A130D9F0B1E20394002009F4BA
:100AB0001394D8DEE4DEF12DE02D9083BA95A9F7EA
:100AC000D1DEDDDE973F59F41770E2E2E19FE8E600
:100AD0000E0E08F41394A1E0F12DE02DA0830895EB
:1020000000004E594D69646900496E7465726661DD
:10201000636500524F4D207665722E20312E30328E
:102020002E3800627920482E205775727374203044
:1020300038002020202020202020202020726561D0
:102040006479004944200062616420616464722EF6
:102050002072616E676500626173652061646472FD
:102060002E206D757374006265206F662058302DC8
:10207000585800646576696365207570646174659D
:10208000642E20007265626F6F74696E672E2E2E4B
:01209000004F
:00000001FF
