:020000020000FC
:10000000EFEDEDBFEFE1E7BBE0E6E1BB46D15CD150
:10001000C49801D1C49AFFD0C498FDD002E00EBBB1
:10002000F0D059D107E00EBBECD0F5D0F4D04CD1D4
:1000300001E10EBBE6D04FD10EE10EBBE2D0EBD01A
:10004000EAD0C49A41D10DE20EBBDBD044D108E323
:100050000EBBD7D0E1E0EEBB41D1E0E0EEBB3ED13C
:10006000AA27E3E6F0E0A08391D0E3E6F0E0A081E8
:10007000A732D1F7A1E0E4E6F0E0EA0F08F4F39547
:10008000D081DD3789F7A2E0E4E6F0E0EA0F08F47A
:10009000F395D081D13041F7E0E0EEBBE09ACDB3EB
:1000A000A3E0E4E6F0E0EA0F08F4F395D081CD1781
:1000B000D9F6E1E0EEBBE09ACDB3A4E0E4E6F0E0EF
:1000C000EA0F08F4F395D081CD1771F6A5E0E4E6C8
:1000D000F0E0EA0F08F4F3959081C49A992309F0AF
:1000E000C498AF93BF93A0E2AA95EAE6F0E0EA0FC6
:1000F00008F4F395B081B43E09F4B1EEB43C09F4D0
:10010000B1EEB63F09F4BFEEB63D09F4BFEEBC3F19
:1001100009F4B5EFBC3D09F4B5EFEAE6F0E0EA0F0B
:1001200008F4F395B083A030F9F6BF91AF91D0D029
:10013000AF93AA27A03109F409C0EAE6F0E0EA0F7C
:1001400008F4F395408182D0A395F4CFAF91C3D04A
:10015000AF93AA27A03109F409C0EAE7F0E0EA0F5B
:1001600008F4F395408172D0A395F4CFAF917CCF82
:10017000E3E6F0E0A081E4E6F0E0EA0F08F4F395AE
:100180009083A395E3E6F0E0A0830895AA27E3E631
:10019000F0E0A0830FD01BD0903F09F0F7CFE8DF4D
:1001A00009D015D0903F09F4F1CFE2DF973F09F075
:1001B000F7CF08958099FECF58E28099FBCF5A95EA
:1001C000E1F7089550E55A95F1F700000895A1E090
:1001D000992768E0F7DF80999A2BAA0F6A95D1F7E3
:1001E000089580E0E7DFF3DF97FD80E0E0E6F0E0F0
:1001F000E80F08F4F39590838395833099F7E2DF55
:100200000895E09A4DB3442329F020D0EEB3E3954E
:10021000EEBBF7CF089584E603D08A95E9F70895F9
:1002200052E469EC6A95F1F75A95D9F7089550EAC6
:100230005A95F1F70895969A00000000000000001A
:10024000000000000000000096980895EF93FF93CF
:10025000E42F42954F70959AF8B3F07F4F2B48BB2F
:10026000EADFEF70959AEF2BE8BBE5DFE0DFFF9167
:10027000EF910895EF93FF939598E42F42954F7077
:10028000F8B3F07F4F2B48BBD6DFEF70EF2BE8BB06
:10029000D2DFCDDFFF91EF91089570EAC1DF7A954B
:1002A000E9F743E048BBC7DFBBDFC5DFB9DFC3DF2A
:1002B000B7DF42E048BBBFDFB3DF48E2DBDF4CE043
:1002C000D9DF44E0D7DF089541E0D4DFA9DF089506
:1002D00040E8D0DF089540ECCDDF0895E09A4DB3BB
:1002E00042954F70A0E34A0F4A33A7E00CF04A0F43
:1002F000ADDF4DB34F70A0E34A0F4A33A7E00CF0D7
:060300004A0FA4DF08957E
:00000001FF
